{
  "contractName": "Calculator",
  "abi": [
    {
      "anonymous": false,
      "inputs": [
        {
          "indexed": false,
          "internalType": "string",
          "name": "msg",
          "type": "string"
        }
      ],
      "name": "Success",
      "type": "event"
    },
    {
      "constant": true,
      "inputs": [],
      "name": "result",
      "outputs": [
        {
          "internalType": "uint256",
          "name": "",
          "type": "uint256"
        }
      ],
      "payable": false,
      "stateMutability": "view",
      "type": "function"
    },
    {
      "constant": true,
      "inputs": [
        {
          "internalType": "uint256",
          "name": "num1",
          "type": "uint256"
        },
        {
          "internalType": "uint256",
          "name": "num2",
          "type": "uint256"
        }
      ],
      "name": "addNum",
      "outputs": [
        {
          "internalType": "uint256",
          "name": "",
          "type": "uint256"
        }
      ],
      "payable": false,
      "stateMutability": "pure",
      "type": "function"
    },
    {
      "constant": true,
      "inputs": [
        {
          "internalType": "uint256",
          "name": "num1",
          "type": "uint256"
        },
        {
          "internalType": "uint256",
          "name": "num2",
          "type": "uint256"
        }
      ],
      "name": "subtractNum",
      "outputs": [
        {
          "internalType": "uint256",
          "name": "",
          "type": "uint256"
        }
      ],
      "payable": false,
      "stateMutability": "pure",
      "type": "function"
    },
    {
      "constant": true,
      "inputs": [
        {
          "internalType": "uint256",
          "name": "num1",
          "type": "uint256"
        },
        {
          "internalType": "uint256",
          "name": "num2",
          "type": "uint256"
        }
      ],
      "name": "mulNum",
      "outputs": [
        {
          "internalType": "uint256",
          "name": "",
          "type": "uint256"
        }
      ],
      "payable": false,
      "stateMutability": "pure",
      "type": "function"
    },
    {
      "constant": true,
      "inputs": [
        {
          "internalType": "uint256",
          "name": "num1",
          "type": "uint256"
        },
        {
          "internalType": "uint256",
          "name": "num2",
          "type": "uint256"
        }
      ],
      "name": "divNum",
      "outputs": [
        {
          "internalType": "uint256",
          "name": "",
          "type": "uint256"
        }
      ],
      "payable": false,
      "stateMutability": "pure",
      "type": "function"
    },
    {
      "constant": false,
      "inputs": [
        {
          "internalType": "uint256",
          "name": "value",
          "type": "uint256"
        }
      ],
      "name": "storeResult",
      "outputs": [],
      "payable": false,
      "stateMutability": "nonpayable",
      "type": "function"
    }
  ],
  "bytecode": "0x608060405234801561001057600080fd5b50610340806100206000396000f3fe608060405234801561001057600080fd5b50600436106100625760003560e01c8063173dbaca14610067578063650a6fc2146100b357806365372147146100e15780637eaddeaa146100ff578063e4ada89c1461014b578063fb596d0714610197575b600080fd5b61009d6004803603604081101561007d57600080fd5b8101908080359060200190929190803590602001909291905050506101e3565b6040518082815260200191505060405180910390f35b6100df600480360360208110156100c957600080fd5b81019080803590602001909291905050506101f0565b005b6100e9610262565b6040518082815260200191505060405180910390f35b6101356004803603604081101561011557600080fd5b810190808035906020019092919080359060200190929190505050610268565b6040518082815260200191505060405180910390f35b6101816004803603604081101561016157600080fd5b8101908080359060200190929190803590602001909291905050506102f1565b6040518082815260200191505060405180910390f35b6101cd600480360360408110156101ad57600080fd5b8101908080359060200190929190803590602001909291905050506102fe565b6040518082815260200191505060405180910390f35b6000818303905092915050565b806000819055507f166b96a382dc3abc86ba052ca9c020cfd7022d2d3059e868918a3d20779e41cc6040518080602001828103825260148152602001807f4f7065726174696f6e205375636365737366756c00000000000000000000000081525060200191505060405180910390a150565b60005481565b60008082116102df576040517f08c379a000000000000000000000000000000000000000000000000000000000815260040180806020018281038252601e8152602001807f4e756d2063616e6e6f74206265207a65726f206f72206e65676174697665000081525060200191505060405180910390fd5b8183816102e857fe5b04905092915050565b6000818301905092915050565b600081830290509291505056fea265627a7a72315820fc782c84de8b0271309d25a7d49237d30fe2aef807f7e49c1dfe0cce81d2369c64736f6c63430005100032",
  "source": "// SPDX-License-Identifier: MIT\r\npragma solidity >=0.4.22 <0.8.30;\r\n\r\ncontract Calculator {\r\n\r\n    uint public result;\r\n\r\n    event Success(string msg);\r\n\r\n    function addNum(uint num1, uint num2) public pure returns (uint) {\r\n        return num1 + num2;\r\n    }\r\n\r\n    function subtractNum(uint num1, uint num2) public pure returns (uint) {\r\n        return num1 - num2;\r\n    }\r\n\r\n    function mulNum(uint num1, uint num2) public pure returns (uint) {\r\n        return num1 * num2;\r\n    }\r\n\r\n    function divNum(uint num1, uint num2) public pure returns (uint) {\r\n        require(num2 > 0, \"Num cannot be zero or negative\");\r\n        return num1 / num2;\r\n    }\r\n\r\n    // State-changing function to store the result and emit success event\r\n    function storeResult(uint value) public {\r\n        result = value;\r\n        emit Success(\"Operation Successful\");\r\n    }\r\n}\r\n",
  "sourcePath": "D:\\Web3\\Calculator Dapp\\contracts\\Calculator.sol",
  "compiler": {
    "name": "solc",
    "version": "0.5.16+commit.9c3226ce.Emscripten.clang"
  },
  "schemaVersion": "3.4.16",
  "updatedAt": "2024-09-22T20:06:50.672Z",
  "networkType": "ethereum",
  "devdoc": {
    "methods": {}
  },
  "userdoc": {
    "methods": {}
  }
}