{
  "contractName": "Calculator",
  "abi": [
    {
      "constant": false,
      "inputs": [
        {
          "internalType": "uint256",
          "name": "num1",
          "type": "uint256"
        },
        {
          "internalType": "uint256",
          "name": "num2",
          "type": "uint256"
        }
      ],
      "name": "addNum",
      "outputs": [
        {
          "internalType": "uint256",
          "name": "",
          "type": "uint256"
        }
      ],
      "payable": false,
      "stateMutability": "nonpayable",
      "type": "function"
    },
    {
      "constant": false,
      "inputs": [
        {
          "internalType": "uint256",
          "name": "num1",
          "type": "uint256"
        },
        {
          "internalType": "uint256",
          "name": "num2",
          "type": "uint256"
        }
      ],
      "name": "subtractNum",
      "outputs": [
        {
          "internalType": "uint256",
          "name": "",
          "type": "uint256"
        }
      ],
      "payable": false,
      "stateMutability": "nonpayable",
      "type": "function"
    }
  ],
  "bytecode": "0x608060405234801561001057600080fd5b50610118806100206000396000f3fe6080604052348015600f57600080fd5b506004361060325760003560e01c8063173dbaca146037578063e4ada89c146080575b600080fd5b606a60048036036040811015604b57600080fd5b81019080803590602001909291908035906020019092919050505060c9565b6040518082815260200191505060405180910390f35b60b360048036036040811015609457600080fd5b81019080803590602001909291908035906020019092919050505060d6565b6040518082815260200191505060405180910390f35b6000818303905092915050565b600081830190509291505056fea265627a7a72315820b636c9c651bc838af451b2da18f7d1324478b0d65b51b333f8d34a7fe485dbe264736f6c63430005100032",
  "source": "// SPDX-License-Identifier: MIT\r\npragma solidity >=0.4.22 <0.8.0;\r\n\r\ncontract Calculator{\r\n    function addNum(uint num1 , uint num2) public returns (uint){\r\n        return num1+num2;\r\n    }\r\n\r\n        function subtractNum(uint num1 , uint num2) public returns (uint){\r\n        return num1-num2;\r\n    }\r\n}",
  "sourcePath": "D:\\Web3\\Calculator Dapp\\contracts\\Calculator.sol",
  "compiler": {
    "name": "solc",
    "version": "0.5.16+commit.9c3226ce.Emscripten.clang"
  },
  "schemaVersion": "3.4.16",
  "updatedAt": "2024-09-22T18:33:07.789Z",
  "networkType": "ethereum",
  "devdoc": {
    "methods": {}
  },
  "userdoc": {
    "methods": {}
  }
}